:020000020000FC
:10000000C0C0202020205368616C6C7927732020A9
:10001000202020202020205069616E6F2020202089
:100020002020202020204F63746176612031202021
:100030002020202020204F63746176612032202010
:100040002020202020204F637461766120332020FF
:100050002020202020204F637461766120342020EE
:100060002020202020204F637461766120352020DD
:100070002020202020204F637461766120362020CC
:100080002020202020204F637461766120372020BB
:100090002020202020204F637461766120382020AA
:1000A00020202020202020202052652020202020D9
:1000B0002020202020202020204D692020202020CA
:1000C00020202020202020202046612020202020C9
:1000D000202020202020202020536F6C2020202052
:1000E0002020202020202020204C612020202020A3
:1000F0002020202020202020205369202020202084
:10010000202020202020202020446F20202020207C
:100110002020C01AD1177216ED13C011E00F0C1E6B
:10012000480DD50B280BF609E008E707E80EA406F2
:10013000EA059805FB046F04F30373075303F60203
:10014000CC027D023702F901BC03A9017A016501E5
:100150003E011D01FC00DE01D400BD00B2009F0085
:100160008E007E00EE0069005E0058004F004600E1
:100170003E00760035002E002B00270023001F00D4
:100180003B0004E00EBF0FE50DBF73D0ECD093D061
:100190009ED063E079D0D3D050E8B7D009B30170D6
:1001A000013009F005C009B301700130E1F337C037
:1001B00009B30270023009F005C009B302700230C1
:1001C000E1F333C003B300780038A9F103B300743E
:1001D0000034A1F103B30072003299F103B300714E
:1001E000003191F103B30870083089F103B3047052
:1001F000043081F103B30270023079F103B301706E
:10020000013071F100B30078003869F100B3007477
:10021000003461F100E00BBD0ABD36D0BCCF6130C7
:1002200011F06A95B8CF61E0B6CF683011F06395F0
:10023000B2CF68E0B0CF71E0EAD0ADCF72E0E7D0E6
:10024000AACF73E0E4D0A7CF74E0E1D0A4CF75E0EB
:10025000DED0A1CF76E0DBD09ECF77E0D8D09BCFA9
:1002600078E0D5D098CF79E0D2D095CF7AE0CFD0D2
:1002700092CF0F9300E00ABB0FE301BB0FEF07BB68
:1002800000E004BB0F910895F0E0E2E000E157D0F8
:10029000459147D00A950030D1F751D050EC35D078
:1002A0004ED0E2E1F0E000E14AD045913AD00A9523
:1002B0000030D1F708950F931F930027112713954E
:1002C000F1F703950C33D1F71F910F9108950F9318
:1002D0001F93F1DF50E319D0EEDF50E316D0EBDFD0
:1002E00050E313D0E8DF5CE310D029D058E00DD004
:1002F00026D051E00AD023D056E007D020D05CE0D1
:1003000004D01DD01F910F9108951F9310E012BBD0
:1003100014E012BB58BB10E012BB12E012BB1F91DD
:1003200008950F931F9301E002BB05E002BB48BB99
:1003300001E002BB02E002BB1F910F9108950F93F1
:100340001F9300E007BB02E002BB06E002BB000017
:1003500016B302E002BB10781030A9F70FEF07BB0D
:100360001F910F9108950F9300E40FBD09E00EBD9A
:100370000FE301BB00E00ABD0BBD0F910895613092
:1003800071F0623099F06330C1F06430E9F06530AB
:1003900011F1663039F1673061F1683089F1F0E0D0
:1003A000E2E22E2F3F2FF1E0E2E10895F0E0E2E3F8
:1003B0002E2F3F2FF1E0E0E20895F0E0E2E42E2F4F
:1003C0003F2FF1E0EEE20895F0E0E2E52E2F3F2F1F
:1003D000F1E0ECE30895F0E0E2E62E2F3F2FF1E0AC
:1003E000EAE40895F0E0E2E72E2F3F2FF1E0E8E5A0
:1003F0000895F0E0E2E82E2F3F2FF1E0E6E60895C1
:10040000F0E0E2E92E2F3F2FF1E0E4E708956F934B
:100410007130C1F0723011F1733069F17430C1F193
:10042000753051F0763049F0773041F0783039F05E
:10043000793031F07A3029F038C044C050C05CC007
:1004400067C073C0673008F067E099DF00E0E00F35
:10045000E01FA591B491E2EAF0E074C0673008F0C3
:1004600067E08DDF02E0E00F00E0F01FA591B4919E
:10047000E2EBF0E067C0673008F067E080DF04E09F
:10048000E00F00E0F01FA591B491E2ECF0E05AC05B
:10049000673008F067E073DF06E0E00F00E0F01F70
:1004A000A591B491E2EDF0E04DC0673008F067E04F
:1004B00066DF08E0E00F00E0F01FA591B491E2EEE6
:1004C000F0E040C0673008F067E059DF0AE0E00F75
:1004D00000E0F01FA591B491E2EFF0E033C0683086
:1004E00009F063954CDF0CE0E00F00E0F01FA591F0
:1004F000B491E2E0F1E026C0683009F063953FDF97
:1005000000E0E00FF01FA591B491E2EAF0E01AC01C
:10051000683009F0639533DF02E0E00F00E0F01F80
:10052000A591B491E2EBF0E00DC0683009F063955D
:1005300026DF04E0E00F00E0F01FA591B491E2ECAB
:10054000F0E000C050E8E1DE00E1F9DE4591E9DECF
:100550000A950030D1F7F3DE50ECD7DE00E1F32F3F
:10056000E22FEDDE4591DDDE0A950030D1F7BBBD0F
:06057000AABD6F91089581
:00000001FF
